:040000000C946500F7
:100004000C9400000C9400000C9400000C9400006C
:100014000C9400000C9400000C9400000C9400005C
:100024000C9400000C9400000C9400000C9400004C
:100034000C949D000C9400000C9400000C9400009F
:100044000C9400000C9400000C9400000C9400002C
:100054000C9400000C9400000C9400000C9400001C
:100064000C94000000004469733A2025302E336656
:1000740020636D0053706565643A2025302E316627
:10008400206B6D2F68004F626A6563742044657449
:10009400656374696F6E000080C02D4E414E000090
:1000A40001002D4E414E00494E4600001100000350
:1000B4008A00020003006800020015039C0001008E
:1000C4001903A4000000F894EE27EFBBF1E0F5BF9C
:1000D400E5BFF8E1A895A4B7A77FA4BFF09360009B
:1000E400E09360008DE0A2E0BB27ED938A95E9F7E9
:1000F40080E098E0A0E0B1E0ED930197E9F7E0EB50
:10010400F0E085919591009761F0A591B5910590E6
:100114001590BF01F00105900D920197E1F7FB01E5
:10012400F0CFE0E0EEBBEFEFEDBFE8E0EEBFC0E004
:10013400D3E00C945C01EA93FA93EFB7EA93E1E01D
:10014400F0E03E0E4F1EE991EFBFF991E991189549
:10015400E881E064E0937C008BE18A95F1F7E0911B
:100164007A00E064E0937A00E0917A00E071E1F3D0
:10017400E0917A00E061E0937A00E0917800F091F8
:1001840079000C94CC0260971A930A93299AE5E0BB
:10019400F0E00E94310729980E943507E1E4E093DA
:1001A4008100E1E2E6BBE6B3E070E9F70E943507BF
:1001B400E1E0E0938100E1E2E6BB33244424E6B3CA
:1001C400E070E9F7E0918600F0E0DF01E09187005C
:1001D400FE2FE0E0EA0FFB1FBF01E32DF42DAFEF8C
:1001E400BFEF0E94480AE60FF71F8F01F8010E9433
:1001F4003B07E9E2FCE369EE73E40E94CC09E09377
:100204001103F09312036093130370931403FE011C
:100214003296FA93EA93EAE6F0E0FA93EA93E091ED
:100224001103F091120360911303709114030E945F
:100234004807E1E0EA933FD1FE0132960E9451075C
:100244001981088162960895E4E1E093B300EFE632
:1002540007C0E5E0E093B300EFE0E8BDE7BDE3E607
:100264006E2EE8EEF3E00E9431070895A091B400E9
:10027400AB3028F0A4EBB0E0EC91E150EC9308959E
:10028400A091B400A33128F4A4EBB0E0EC91EF5FAB
:10029400EC930895E7B5E33120F4E7B5EF5FE7BDEC
:1002A400E1500895E7B5EB3020F0E7B5E150E7BD44
:1002B400EF5F08956497E0E8E0936100E0E0E09385
:1002C4006100E3E8E4BDE5E0E5BDE0E0E6BDEFE0C4
:1002D400E7BDE0E0E8BDE3EAE093B000E7E0E093E7
:1002E400B100E0E0E093B200E093B300EFE0E0930C
:1002F400B400E0E0E0938000E1E0E0936F00E1E22D
:10030400E0937E00E0E4E0937C00E4E8E0937A008C
:10031400E0E1EA930ED1239A539A569A219A2098AF
:100324007894D6D0E5E0EA9313DF8F01E0E0EA9316
:100334000FDF0E943B070E9455070E94CC090E94D0
:100344005A07FE01FA93EA93E8E7F0E0FA93EA9396
:10035400EC89FD896E897F890E944807E0E0EA9371
:10036400AAD0FE010E945107EFE6E61571F50E943E
:100374005F07E0E0F0E06CE872E40E94110A28F400
:100384000E946A070E94CE0A0CF009C0E0E0EA93DA
:10039400E1E0EA9390D0E0E0F3E00E945107A091FD
:1003A4001103B091120380911303909114030E94DE
:1003B4006F0738F40E94760709F010F40C94E301F7
:1003C40001C003C046DFE1E66E2EE1E6E61529F43E
:1003D4000E946A070E94CE0A0CF00DC00E945F07BB
:1003E4000E946F0738F40E94760709F010F40C9409
:1003F400FC0101C029DFEFEFF3E0E017F10711F48E
:1004040023DF22C0EBEDF2E0E017F10711F421DF66
:100414001BC0EBE1F2E0E017F10711F427DF14C091
:10042400EAE8F1E0E017F10711F42ADF0DC0EDE08E
:10043400F1E0E017F10711F42DDF06C0E2E9F0E086
:10044400E017F10709F42EDFE8ECF0E00E94310731
:1004540068CFFFCFE881E07111F02C9A01C02C988D
:10046400E881E07211F02D9A01C02D98E881E074C2
:1004740011F02E9A01C02E98E881E07811F02F9A9D
:1004840001C02F9885E08A95F1F75A9A8DE08A95F4
:10049400F1F75A988DE08A95F1F77CC0E881EA93E8
:1004A400D9DFE881E295E883E881EA93D3DF85E840
:1004B4008A95F1F76FC0E881F0E0EB5EFC4FE081D4
:1004C400A981EA0FEA93EADF598088802296089589
:1004D400E2E00E947E07ECE0EA93E0DFE1E00E94C4
:1004E4007E07E0E08E2E5E2E0895A881AA3011F0DA
:1004F400571448F0E0E0EA9383948A92DCDFA88101
:10050400AA3009F447C05394589AE881EA93C6DFA5
:10051400589840C01A93A981BA81ED91A983BA83EE
:100524001E2FE03019F01A93E0DFF5CF18812396DF
:100534000895249A259A269A279A529A509A519A5B
:100544005A98589859987880E881E058E0931703AE
:10055400E881E054E0931803E4E1F0E00E943107FD
:100564000E9484070E9484070E948407E0E2EA93C1
:1005740071DF88EC90E00197F1F7E8E2EA938EDF0F
:10058400E4E0EA938BDFE5E8EA9388DFE6E0EA93C8
:1005940085DF9EDF219608951A930A93AA81BB8171
:1005A40012960E94A40A309729F1AA81BB8114965D
:1005B4000E94A40A8F01309761F00230E0E01E0728
:1005C400C0F0F80131978F01AA81BB811496ED9395
:1005D400FC93AA81BB8112960E948D073197AC814E
:1005E400A083AA81BB810E94A40AFF2312F00E9467
:1005F4008D0706C0AA81BB81EFEFFFEFED93FC935B
:1006040019810881259608952497E0E0E883E98319
:10061400E0E8EA83EFE3EB830E94D60AEE85FF85E8
:10062400EF3FAFEFFA0749F4E885F985FA93EA93C7
:10063400EEE9F0E00E949307B8C0EF3FAFE7FA0796
:1006440049F4E885F985FA93EA93EFE9F0E00E942A
:100654009307ABC0AB85A73010F0E6E0EB871B85B2
:10066400E12F1150E03019F00E949707F9CFEC8583
:10067400FD856E857F850E94CA0A21F430E00E94C0
:1006840097072EC03B850E94A30709F010F40C9431
:1006940056030E9497070E94A30728F00E94AE0702
:1006A4000E94B307F8CF0DC00E94A30740F40E9434
:1006B400AE070E94BF070E94C3073150F5CF0E94C6
:1006C4009707EC85FD856E857F850E94C8070E948B
:1006D400C3070E94A30720F00E94AE070E94B3073D
:1006E40010E0EB85E117A8F1AC81BD818E819F817B
:1006F4000E94CF070E94C8070E94B80A0E947A0687
:10070400EC83FD836E837F830E94AE070E94CC0935
:100714000E94BB080E2F0E94D6070E94DD07FF2708
:10072400662777270E94F408AC81BD818E819F8162
:100734000E947E090E94AE070E94E2070E94C3073E
:10074400E12F1F5FE03069F60E94D607EEE2EC93DA
:10075400C8CF0E94E7073197AA85A08330302CF4D4
:100764003195A885B985EDE203C0A885B985EBE28A
:10077400EC930E94E7070E94E7073197BF01A32F7C
:10078400EAE00E945E0AE05DDB01EC930E94E70769
:100794003197BF01A32FEAE00E94880AE05DDB01E4
:1007A400EC93A885B985E0E0EC930E94DD0A60969D
:1007B4000895EF9761970E94D40A10E0FE01E85A69
:1007C400FF4F0190F081E02DE887F987FE01EA5A96
:1007D400FF4F0190F081E02DEE83FF83AE81BF8156
:1007E400E0E0F0E0ED93FC93DE01A45ABF4F0E94D9
:1007F4008D073197E4912E2FE03011F40C94EC0521
:10080400E12FE03039F4253211F411E002C00E94E6
:10081400ED07DFC1E130C1F4253219F40E94ED0780
:10082400D7C112E0E0E0ED8B00E02D3211F401E0DD
:10083400D0C12B3219F4EBE2ED8BCBC1203219F489
:10084400E0E2ED8BC6C102C0E23039F450E013E0BF
:10085400203311F40068BDC102C0E33091F42033A9
:1008640010F02A3308F007C0AAE05A9F502DE22F57
:10087400E0535E0FAEC140E02E3211F414E0A9C182
:100884000FC0E43099F4203310F02A3308F008C084
:100894000062AAE04A9F402DE22FE0534E0F99C117
:1008A4002C3619F4026015E094C104C0E53011F04F
:1008B4000C94EB05E22FE33659F40E94F6070E94EC
:1008C400FD070E94F607A481AA930E94040880C130
:1008D400E53411F0E53609F404C0E63611F00C9461
:1008E400BD04FE017696EE87FF870E940C080E94E5
:1008F400A80A0E9413080E941808AD85AA2322F0B2
:10090400AD89AB3249F017C00E941A080E948808CA
:100914000E941308EDE2ED8B07FF05C0ED89EA9311
:100924000E94040808C0EE85FF853196EE87FF8794
:100934003197AD89A08305FF46E0263661F40E9415
:100944001A080E94B80A4A93EB89FC89FA93EA933D
:100954000E9491060BC00E941A080E94B80A4A938A
:100964002A93EC89FD89FA93EA934EDEFE0176968A
:100974000E941F081EC0E33739F40E9418080E9421
:1009840027080E941F080EC0E037C1F40E9418080F
:100994000E942708EE87FF87FA93EA930E94400695
:1009A4001E2F08600F77403011F0411708F001C086
:1009B400142F40E0E0E0EC8B30E06EC0E43611F040
:1009C400E93611F4046002C0E537A1F4EAE0EC8BE7
:1009D40001FF08C0E0E0FAEC6AE97BE30E945A07F1
:1009E4001AE023C0E0E1F7E260E070E00E945A07F9
:1009F40015E01BC0E83511F4086004C0E83711F0B5
:100A04000C94EA05E0E1EC8B01FF08C0E0E0F0E0C3
:100A140060E070E10E945A0718E007C0E0E0F0E1EE
:100A240060E070E00E945A0714E0403011F00F7744
:100A340001C041E001FF08C00E9418080E940C0890
:100A440014960E94A80A0FC002FF07C00E9418084B
:100A54000E9427080E94430A06C00E9418080E94A8
:100A6400270866277727EA87FB876C877D8702FF3D
:100A740012C0AD85AA2342F40E941A080E94350AC6
:100A84000E941308EDE2ED8BED89E03019F01F5F51
:100A94004F5F01C00B7F342F00FD14C0151710F4F5
:100AA400351708F00FC007FF08C002FF04C00B7F12
:100AB4002D89115001C020E301C020E20E94ED07FE
:100AC4005150ECCF141790F4006102FF06C00E944D
:100AD4002C0809F0515011504150E0E3EA930E9470
:100AE4000408503009F051504150ECCF312FEC89BB
:100AF400E030B9F43030A1F003FF06C0EE85FF8585
:100B04002591EE87FF8705C0AE85BF852D91AE8701
:100B1400BF870E94ED07503009F051503150EACFA1
:100B24004DC00E9440080E94630A2E2F2A3030F0E4
:100B340003FF02C0295C01C0295A01C0205D04FDE5
:100B44001FC0213350F40E946A07A130E0E0BE07C1
:100B5400E0E08E07E0E09E0709F40BC0431740F481
:100B6400531710F000FF01C010C020E207FF08C0B7
:100B740020E3006102FF04C00E942C0809F05150D8
:100B84000E94ED07503009F0515031500E94400846
:100B94000E94940A0E941308EC890E946A07FF27A6
:100BA400662777270E94630A0E945A07E889F98911
:100BB4006A897B890E94CA0A09F0B3CF00FF08C082
:100BC400503031F05150E0E2EA930E940408F8CF2B
:100BD40010E00ACEAE81BF810E94A40A0E94DB0A03
:100BE400EF966F960895FF92F82E26970E94D60AE4
:100BF4000E944908309719F4EFEFFFEF25C0DE019A
:100C040016960E94310A8D010E944908EE83FF83E3
:100C1400E0E0E887E987DE011A960E94310A0E9423
:100C2400A40AFA93EA931A930A93EEECF2E0FA9385
:100C3400EA93FE013A96FA93EA93BBDD9F01AE81F3
:100C4400BF81E0E0EC93F9010E94DD0A2A96FF904F
:100C54000895E991F991A991B991CD0105900D9269
:100C64000020E1F7FC010895A991B991EE27FF272F
:100C74006D91662311F03196FBCF0895AA27BB2707
:100C8400E991F9910590002011F01196FBCFFD0137
:100C940008957B816A81F981E88177FB770F67FD8D
:100CA4007160972F9E5781F078F0983190F4AA27BD
:100CB400BB27882708948795B795A7959A95D1F768
:100CC400EA23FB23682305C0E8947727EE27FF2750
:100CD40066276F77769508F4606877F9A991B991DA
:100CE40089919991EA17FB076807790797FB08959B
:100CF4000E9450080E94B80A0E944B060E94B30A40
:100D040019F40E94500809C0E6F70E945008A0E0B8
:100D1400B0E080E89FE30E94270924960895249771
:100D2400E0E0E883E983EA83EFE3EB831A930A9331
:100D3400EB85FC85EF3FAFEFFA0729F4B2D1E6EA81
:100D4400F0E0EFD088C0EF3FAFE7FA0729F4A9D16C
:100D5400E7EAF0E0E6D07FC0AC85AA2352F4E98547
:100D6400FA856B857C850E948808A0D1A4D1EDE228
:100D7400EC93A885A73010F0E6E0E8871885E12F0A
:100D84001150E03021F09ED108D1A1D1F8CFA4D1E7
:100D94000E942E098BD110E0E0E0F0E060E87FE3F0
:100DA40096D19AD10E94110A60F08CD1E6D08FD1ED
:100DB4001F5F173228F075D1EBEAF0E0B2D04BC0D8
:100DC400F0CF103021F477D1E0E3EC9320C0E12F91
:100DD4001150E030E1F076D1E0D0D8D00E94B80ACA
:100DE4000E947A0674D178D10E94CC090E94BB0873
:100DF4000E2F61D1E0D0F0E065D10E94430A0E9439
:100E0400F4080E947E0971D1DBD050D1E0CFE8858F
:100E1400E030E9F050D1EEE2EC93E885E150E88768
:100E2400EF5FA9F062D1A9D041D1E985FA856B853C
:100E34007C850E94BB080E2F3ED1BDD0F0E055D179
:100E44000E94430A0E94F408BBD030D1E6CFAE81A1
:100E5400BF81E0E0EC93198108812D960895FA93FF
:100E6400EA930C947C08E0E0E0938500E09384002E
:100E74000895662777270E94F408A0E0B0E080E890
:100E84009FE30E947E09DF01CB0108950E94B80A06
:100E940084E00E94F5052896E0E0EA930895FA9329
:100EA400EA930C948C02E0E0F0E060E271E40895CF
:100EB400E88BF98B6A8B7B8B08950E94C500A09107
:100EC4001103B091120380911303909114030895B8
:100ED400A889B9898A899B890895E0E0F0E060E2F5
:100EE40072E40E94110A0895F3DFE0E0F0E060EAA2
:100EF40071E40E94110A0895EA930E945002E3E00B
:100F0400F0E0ADCFE0E3EA930E942C0288EC90E09D
:100F14000197F1F70895ED91FD913196FE93EE93CB
:100F24000895FA93EA930C942B06AC81BD818E81CB
:100F34009F81B9DF0E947E09EC83FD836E837F83EA
:100F44000895EC81FD816E817F81AC85BD858E85A0
:100F54009F850E94110A0895AC85BD858E859F8565
:100F64000895EDECFCEC6CEC7DE30E947E09EC87CB
:100F7400FD876E877F873F5F089595DF0E947E0916
:100F84000895EC87FD876E877F870895A0E0B0E021
:100F940080E09FE30E942E090895EDECFCEC6CECDC
:100FA4007DE30E947E090895A885B9851196A887D6
:100FB400B98711970895E02FE05DEC93E02F089531
:100FC4000E94BD0A0E9427090895E885F985319693
:100FD400E887F98708952A93EF81F885FA93EA93CD
:100FE400EB85FC8509950895FE01E65AFF4F0190B3
:100FF400F081E02D08953497DE01A65ABF4FED939A
:10100400FC930895EF81F885FA93EA93EB85FC85C8
:1010140009950895DE01A65ABF4F0D90BC91A02DED
:101024000895EA87FB876C877D870895DDDFE3CF2A
:10103400EA85FB856C857D850895EE87FF87FA93A5
:10104400EA930E9436061E2F0895E4DF14960E9448
:10105400A40A08950B7FED89EA93FE01E95AFF4F34
:101064000190F081E02DFA93EA93FE01E55AFF4FD7
:101074000190F081E02D099550300895E889F989AF
:101084006A897B89AA85BB858C859D850895DE0147
:101094001C960E94310A0E94A40A08950E94AE0A76
:1010A4000895EE81FF81FA93EA930895E987FA8718
:1010B4006B877C870895AE81BF811196AE83BF8311
:1010C40011970895AA81BB818C819D810895EA833B
:1010D400FB836C837D830895EA81FB816C817D8130
:1010E400A985BA858B859C850895A985BA858B8544
:1010F4009C850895E991F991309639F080ED97E057
:101104000197F1F7A8953197C9F708953097604092
:10111400704009F070580895552342F4503811F482
:10112400E0FF04C03196691F791F6BF050E8572720
:1011340011F45F93CFC05F3F31F0660F000C5795F9
:101144006795752F08955F9300200AF0CFC0C8C03B
:1011540050E8192E1522880F991F9527550F87954A
:1011640050E8072E0522660F771F7527550F6795E0
:101174000895689401C0E8945F93F2DF703818F022
:101184007F3F08F4A7C056E1571BAAF45195583085
:101194000EF4593030F0EFEFFFEF6FEF7FE777F9A0
:1011A4001AC077275523B9F0EE0FFF1F661F771F6C
:1011B4005A95D1F710C07727583028F0EF2FF62F23
:1011C400672F5850F9CF552331F076956795F795E9
:1011D400E7955A95D1F700200AF445D15F91089517
:1011E400689401C0E894309760407040B1F00024E6
:1011F40026F0772312F4009436D1172E7EE11120C5
:1012040032F07A95EE0FFF1F661F111CF9CFEF2FF6
:10121400F62F612D5F938ADF5F9108954F93AF019D
:10122400FD01DA01AB01BC01CA01402D012C142ED1
:101234004F910895EA0FFB1F681F0895E095F095FC
:101244006095EF5FFF4F6F4F08955F9381DF903894
:1012540071F150E8152604C05F937ADF903839F1B4
:10126400703821F1572F591B2BF112F4D7DFFACF25
:10127400583118F0AA27BB278827583028F0AB2FFD
:10128400B82F88275850F9CF552329F08695B7955C
:10129400A7955A95D9F7502D512572F0CBDF38F424
:1012A4006795F795E795739513F420C0B7DF3EDF94
:1012B4005F910895D8F7FBCFEA1BFB0B680B51F045
:1012C40010F40094BBDF662392F3EE0FFF1F661F3A
:1012D4007A95CBF7EE27FF27662777275F91089546
:1012E400EFEFFFEF6FE77FEF5F910895EFEFFFEF11
:1012F4006FE77FE75F9108955F932ADF703851F3BA
:10130400903841F301240894791F23F41CF300203E
:101314003AF3ECCF0F921F932F933F934F931127E0
:1013240022279927689FA0018F9F302D410D591FB7
:101334006B9F300D411D591F8E9F27D0BF9F25D015
:101344006A9F23D0BE9F1DD0AF9F1BD0AE9F110DAF
:10135400291F391F491F591FE32FF42F652F522FBF
:101364004F913F912F911F910F9066232AF0550FB3
:10137400EE1FFF1F661F02C073954BF2CDDE5F9117
:101384000895100D211D391F02C0200D311D491F64
:10139400591F08955F93DCDE703821F411200AF49C
:1013A4009FCFA4CF903809F495CF01240894970BCC
:1013B4001BF4D4F30020F3CF792F1F932F933F9383
:1013C4004F9311241127222733274427552790E2CE
:1013D400AE17BF078607410730F0AE1BBF0B860B65
:1013E400410B089401C08894551F221F331F111C00
:1013F400AA1FBB1F881F441F9A9551F7F901612D3D
:101404004F913F912F911F91662332F0550FEE1F9C
:10141400FF1F661F7A9543F27FDE5F91089599233B
:101424009AF0772342F0971748F029F4AE17BF07D4
:10143400860720F031F0989488940895989408943D
:1014440008951894889408957723C2F7971798F30A
:10145400A9F7EA17FB07680788F399F3ECCF002490
:10146400AF0DB01D0895F09560957095E195FF4F0F
:101474006F4F7F4F0895FE2FFF0FFF0B6F2F7F2FAE
:1014840008956F2F660F660B762F0895FA9FF02D3F
:10149400EB9FF00DEA9FE02DF10D0895002498E0F4
:1014A400AA0F001C0E1A10F40E0E01C0A1609A952A
:1014B400B9F7EA2FA02D089539D0F0DF0EF4E195A5
:1014C40008953F934F935F93002411244427552795
:1014D40030E2AA0FBB1F881F991F001C111C441F58
:1014E400551F0E1A1F0A460B570B28F40E0E1F1E0B
:1014F400461F571F01C0A1603A9559F7FD01BC0171
:10150400D001CA015F914F913F910895E894A7FFDC
:1015140002C0A1956894E7FDE195C0DFEA2F0EF4BF
:10152400E1950895CEDFFD01BC010895E894E7FF3D
:1015340002C0E1956894A7FF04C0A19500F8039444
:1015440000FA0895ED91FC9111970895ED91FD91A4
:101554006D917C9113970895E881F9816A817B816B
:101564000895E883F9836A837B8308957A936A9361
:10157400FA93EA930895182E862F612D192E972F2A
:10158400712D1B2EBF2FF12D1A2EAE2FE12D089594
:10159400309760407040089500240A160B06080630
:1015A400090608955A934A933A932A931A930A93ED
:1015B40008955D814C813B812A81198108810895B8
:00000001FF
