:0C0000000C9439000C9400000C940000DB
:10000C000C9400000C9400000C9400000C94000064
:10001C000C9400000C9400000C9400000C94000054
:10002C000C9400000C9400000C9400000C94000044
:10003C000C9400000C9400000C9400000C94000034
:10004C000C9400000C9400000C9400000C94000024
:10005C000C9400000C9400000C94000080C0020072
:10006C00000368000000F894EE27EFBBF1E0F5BF49
:10007C00E5BFF8E1A895A4B7A77FA4BFF0936000F3
:10008C00E09360008DE0A2E0BB27ED938A95E9F741
:10009C0080E098E0A0E0B1E0ED930197E9F7EAE6A3
:1000AC00F0E085919591009761F0A591B59105903F
:1000BC001590BF01F00105900D920197E1F7FB013E
:1000CC00F0CFE0E0EEBBEFEFEDBFE8E0EEBFC0E05D
:1000DC00D3E00C94B300E881E064E0937C0083E00F
:1000EC008A95F1F7E0917A00E064E0937A00E09170
:1000FC007A00E071E1F3E0917A00E061E0937A003C
:10010C00E0917800F0917900F2C00E94BC01AC81C2
:10011C00BD81E8EEF3E00E94A6011E2FAC81BD81EB
:10012C00E4E6F0E0E6D00E2FAC81BD81EAE0F0E031
:10013C00E0D03E2FAC81BD81EAE0F0E00E94B90135
:10014C002E2FE12FDED0E02FDCD0E32FDAD0E22F00
:10015C00D8D00E94C10126960895E0E8E093610092
:10016C00E0E0E0936100E4BDE5BDE6BDE7BDE8BDC0
:10017C00E0938000E0938100E0938500E09384009D
:10018C00E0938700E0938600E0938900E093880079
:10019C00E0938B00E0938A00E0936E00E0936F0095
:1001AC00E0E2E0937E00E0E4E0937C00E1E8E093A1
:1001BC007A00E0E1EA936FD07894E5E0EA938BDF84
:1001CC008F014AD0E0E0EA93EA9339D01A930A936C
:1001DC009CDFECE2F1E098D0F0CFFFCFE881E0714A
:1001EC0011F02E9A01C02E98E881E07211F02F9A2E
:1001FC0001C02F98E881E07411F05E9A01C05E98FE
:10020C00E881E07811F05F9A01C05F9881E08A95EF
:10021C00F1F72D9A82E08A95F1F72D9882E08A9574
:10022C00F1F765C0E881EA93D9DFE881E295E883CC
:10023C00E881EA93D3DF81E18A95F1F758C0E88130
:10024C00F0E0E050FD4FE081A981EA0FEA93EADF8C
:10025C004980388022960895E2E05AD0ECE0EA9387
:10026C00E1DFE1E055D0E0E03E2E4E2E0895A8816E
:10027C00AA3011F0461440F0E0E0EA9333943A923D
:10028C00DEDFA881AA3099F143942B9AE881EA9396
:10029C00C9DF2B982CC0269A279A569A579A259ADA
:1002AC00239A249A2D982B982C986880E881E058F2
:1002BC00E0930203E881E054E0930303E4E1F0E00F
:1002CC0023D02BD02AD029D0E0E2EA9387DF81E239
:1002DC008A95F1F7E8E2EA93A5DFE4E0EA93A2DF7E
:1002EC00E5E8EA939FDFE6E0EA939CDFB5DF219631
:1002FC0008950E94A601DF01EAE0F0E00E94B90136
:10030C000895E05DEA93B3CFFA93EA930C949A01C3
:10031C00EA9388DFE3E0F0E0F7CFE0E3EA935EDF17
:10032C0081E28A95F1F70895E991F991309639F0C7
:10033C008AEF90E00197F1F7A8953197C9F70895E6
:10034C000024112490E1AA0FBB1F001C111C0E1AD3
:10035C001F0A18F40E0E1F1E01C0A1609A9599F782
:10036C00FD01D0010895ECDFFD0108953A932A9325
:10037C001A930A9308953B812A8119810881089563
:00000001FF
