:040000000C94AF00AD
:100004000C9400000C9400000C9400000C9400006C
:100014000C9400000C9400000C9400000C9400005C
:100024000C9400000C9400000C9400000C9400004C
:100034000C9400000C9400000C9400000C9400003C
:100044000C9400000C9400000C9400000C9400002C
:100054000C9400000C9400000C9400000C9400001C
:100064000C9400004469733A2025302E33662063D3
:100074006D004F70656E696E6700436C6F73696ED7
:10008400670041646A757374696E67204C656674B1
:1000940000436F6D706C6574656C79204C65667493
:1000A4000041646A757374696E6720526967687485
:1000B40000436F6D706C6574656C79205269676874
:1000C400740041646A757374696E672055700043E7
:1000D4006F6D706C6574656C792055700041646A4D
:1000E400757374696E6720446F776E00436F6D702B
:1000F4006C6574656C7920446F776E0080C02D4EFA
:10010400414E000001002D4E414E00494E46000074
:10011400080000037600080008037E000F001003A7
:10012400860010001F03950010002F03A500110086
:100134003F03B5000D005003C6000E005D03D3005D
:100144000F006B03E10010007A03F00002008A0341
:10015400000101008E0308010000F894EE27EFBBB4
:10016400F1E0F5BFE5BFF8E1A895A4B7A77FA4BF68
:10017400F0936000E09360008DE0A2E0BB27ED9374
:100184008A95E9F780E098E0A0E0B1E0ED9301976B
:10019400E9F7E4E1F1E085919591009761F0A5918B
:1001A400B59105901590BF01F00105900D9201974E
:1001B400E1F7FB01F0CFE0E0EEBBEFEFEDBFE8E0ED
:1001C400EEBFC0E0D3E00C94C001E881E064E093AA
:1001D4007C008BE18A95F1F7E0917A00E064E0938A
:1001E4007A00E0917A00E071E1F3E0917A00E06155
:1001F400E0937A00E0917800F09179000C94E402A5
:100204000E94D60A5898E2E0F0E00E944707589A04
:10021400EAE0F0E00E9447075898E0E0E0938500A8
:10022400E0938400E5E0E0938100499BFECFE091F8
:100234008500FE2FE0E0DF01E0918400F0E0EA0FAA
:10024400FB1F9F01F901662777270E94D808AFE6B4
:10025400B2E183E09EE30E9462090E94A1088F013B
:10026400D801E2E0F0E00E94560A0E944B07DF0149
:10027400CB01E7ECFBE46BEE71E40E94B0090E9451
:10028400A1083E2E4F2EFE013496FA93EA93E8E637
:10029400F0E0FA93EA93F901662777270E94BE0AF1
:1002A40084E00E9411062896FE0134960E945007AD
:1002B4000E94DD0A0C94AB06E4E1E093B300E0E0B5
:1002C400F3E008C0E5E0E093B300EFE0E8BDE7BD8C
:1002D400E8E0F3E0FA93EA9335D1ECEDF5E00E941F
:1002E40047070895E8B5EB3048F0E8B5E150E8BDBC
:1002F400EF5FE0E1F3E00E94500706C0EFE1F3E0B6
:100304000E9450070E9454070895E8B5E33148F469
:10031400E8B5EF5FE8BDE150EFE2F3E00E9450077B
:1003240006C0EFE3F3E00E9450070E9454070895CB
:10033400E7B5E33148F4E7B5EF5FE7BDE150E0E549
:10034400F3E00E94500706C0EDE5F3E00E94500779
:100354000E9454070895E7B5EB3048F0E7B5E15043
:10036400E7BDEF5FEBE6F3E00E94500706C0EAE763
:10037400F3E00E9450070E9454070895E0E8E093D8
:100384006100E0E0E0936100E3EAE4BDE5E0E5BD9F
:10039400E0E0E6BDEFE0E7BDE8BDE3E8E093B000F0
:1003A400E7E0E093B100E0E0E093B200E093B30053
:1003B400E093B400E0938000E5E0E0938100EAE09C
:1003C400E0938500E0938400E0E2E0937E00E0E4C3
:1003D400E0937C00E1E8E0937A00E0E1EA93C1D0A5
:1003E400239A559A569A509A51988AD0E0E0EA9303
:1003F400EA9379D005DFE5E0EA93E7DE8F01EFEFDA
:10040400F3E0E017F10711F457DF36C0EBEDF2E04B
:10041400E017F10711F456DF2FC0EBE1F2E0E0172B
:10042400F10721F4A091B300A43109F002C05ADF0E
:1004340023C0EAE8F1E0E017F10721F4A091B3004A
:10044400A43109F002C061DF17C0EDE0F1E0E0176C
:10045400F10721F4A091B300A43109F002C068DFD0
:100464000BC0E2E9F0E0E017F10721F4A091B3003A
:10047400A43109F001C06FDFE8ECF0E00E94470707
:10048400B4CFFFCFE881E07111F02C9A01C02C9811
:10049400E881E07211F02D9A01C02D98E881E07492
:1004A40011F02E9A01C02E98E881E07811F02F9A6D
:1004B40001C02F9885E08A95F1F72A9A8DE08A95F4
:1004C400F1F72A988DE08A95F1F77CC0E881EA93E8
:1004D400D9DFE881E295E883E881EA93D3DF85E810
:1004E4008A95F1F76FC0E881F0E0E657FC4FE081B0
:1004F400A981EA0FEA93EADF698058802296089579
:10050400E2E00E945707ECE0EA93E0DFE1E00E94BA
:100514005707E0E05E2E6E2E0895A881AA3011F0F0
:10052400681448F0E0E0EA9353945A92DCDFA8811F
:10053400AA3009F447C06394289AE881EA93C6DF95
:10054400289840C01A93A981BA81ED91A983BA83EE
:100554001E2FE03019F01A93E0DFF5CF18812396AF
:100564000895249A259A269A279A229A209A219ABB
:100574002A98289829988880E881E058E0938C0389
:10058400E881E054E0938D03E4E1F0E00E94470742
:100594000E945D070E945D070E945D07E0E2EA9306
:1005A40071DF88EC90E00197F1F7E8E2EA938EDFDF
:1005B400E4E0EA938BDFE5E8EA9388DFE6E0EA9398
:1005C40085DF9EDF219608951A930A93AA81BB8141
:1005D40012960E94AA0A309729F1AA81BB81149627
:1005E4000E94AA0A8F01309761F00230E0E01E07F2
:1005F400C0F0F80131978F01AA81BB811496ED9365
:10060400FC93AA81BB8112960E9466073197AC8144
:10061400A083AA81BB810E94AA0AFF2312F00E9430
:10062400660706C0AA81BB81EFEFFFEFED93FC9351
:1006340019810881259608952497E0E0E883E983E9
:10064400E0E8EA83EFE3EB830E94D60AEE85FF85B8
:10065400EF3FAFEFFA0749F4E885F985FA93EA9397
:10066400E2E0F1E00E946C07B8C0EF3FAFE7FA07A1
:1006740049F4E885F985FA93EA93E3E0F1E00E940E
:100684006C07ABC0AB85A73010F0E6E0EB871B85A9
:10069400E12F1150E03019F00E947007F9CFEC857A
:1006A400FD856E857F850E94D00A21F430E00E948A
:1006B40070072EC03B850E947F0709F010F40C944C
:1006C4006E030E9470070E947F0728F00E948A0729
:1006D4000E948F07F8CF0DC00E947F0740F40E944C
:1006E4008A070E949B070E94A2073150F5CF0E94FF
:1006F4007007EC85FD856E857F850E94A7070E94A3
:10070400A2070E947F0720F00E948A070E948F0799
:1007140010E0EB85E117A8F1AC81BD818E819F814A
:100724000E94AE070E94A7070E94BE0A0E94960676
:10073400EC83FD836E837F830E948A070E94B00945
:100744000E949F080E2F0E94B5070E94BC07FF2736
:10075400662777270E94D808AC81BD818E819F814E
:100764000E9462090E948A070E94C1070E94A20790
:10077400E12F1F5FE03069F60E94B507EEE2EC93CB
:10078400C8CF0E94C6073197AA85A08330302CF4C5
:100794003195A885B985EDE203C0A885B985EBE25A
:1007A400EC930E94C6070E94C6073197BF01A32F8E
:1007B400EAE00E943E0AE05DDB01EC930E94C6077A
:1007C4003197BF01A32FEAE00E94800AE05DDB01BC
:1007D400EC93A885B985E0E0EC930E94DD0A60966D
:1007E4000895EF9761970E94D40A10E0FE01E85A39
:1007F400FF4F0190F081E02DE887F987FE01EA5A66
:10080400FF4F0190F081E02DEE83FF83AE81BF8125
:10081400E0E0F0E0ED93FC93DE01A45ABF4F0E94A8
:1008240066073197E4912E2FE03011F40C940806FA
:10083400E12FE03039F4253211F411E002C00E94B6
:10084400CC07E3C1E130C1F4253219F40E94CC078E
:10085400DBC112E0E0E0ED8B00E02D3211F401E0A9
:10086400D4C12B3219F4EBE2ED8BCFC1203219F451
:10087400E0E2ED8BCAC102C0E23039F450E013E08B
:10088400203311F40068C1C102C0E33091F4203375
:1008940010F02A3308F007C0AAE05A9F502DE22F27
:1008A400E0535E0FB2C140E02E3211F414E0ADC14A
:1008B4000FC0E43099F4203310F02A3308F008C054
:1008C4000062AAE04A9F402DE22FE0534E0F9DC1E3
:1008D4002C3619F4026015E098C104C0E53011F01B
:1008E4000C940706E22FE33659F40E94D5070E94C0
:1008F400DC070E94D507A481AA930E94E30784C160
:10090400E53411F0E53609F404C0E63611F00C9430
:10091400D504FE017696EE87FF870E94EB070E94BE
:10092400AE0A0E94F2070E94F707AD85AA2322F0BF
:10093400AD89AB3249F017C00E94F9070E946C08D8
:100944000E94F207EDE2ED8B07FF05C0ED89EA9303
:100954000E94E30708C0EE85FF853196EE87FF8786
:100964003197AD89A08305FF46E0263661F40E94E5
:10097400F9070E94BE0A4A93EB89FC89FA93EA9329
:100984000E94AD060BC00E94F9070E94BE0A4A935A
:100994002A93EC89FD89FA93EA934EDEFE0176965A
:1009A4000E94FE071EC0E33739F40E94F7070E9435
:1009B40006080E94FE070EC0E037C1F40E94F70744
:1009C4000E940608EE87FF87FA93EA930E945C066A
:1009D4001E2F08600F77403011F0411708F001C056
:1009E400142F40E0E0E0EC8B30E06EC0E43611F010
:1009F400E93611F4046002C0E537A1F4EAE0EC8BB7
:100A040001FF08C0E0E0FAEC6AE97BE30E940B080E
:100A14001AE023C0E0E1F7E260E070E00E940B0816
:100A240015E01BC0E83511F4086004C0E83711F084
:100A34000C940606E0E1EC8B01FF08C0E0E0F0E076
:100A440060E070E10E940B0818E007C0E0E0F0E10C
:100A540060E070E00E940B0814E0403011F00F7762
:100A640001C041E001FF08C00E94F7070E94EB07A4
:100A740014960E94AE0A0FC002FF07C00E94F70737
:100A84000E9406080E942B0A06C00E94F7070E94D3
:100A9400060866277727EA87FB876C877D8702FF2E
:100AA40012C0AD85AA2342F40E94F9070E941D0AD0
:100AB4000E94F207EDE2ED8BED89E03019F01F5F43
:100AC4004F5F01C00B7F342F00FD14C0151710F4C5
:100AD400351708F00FC007FF08C002FF04C00B7FE2
:100AE4002D89115001C020E301C020E20E94CC07EF
:100AF4005150ECCF141790F4006102FF06C00E941D
:100B0400100809F0515011504150E0E3EA930E945B
:100B1400E307503009F051504150ECCF312FEC89AC
:100B2400E030B9F43030A1F003FF06C0EE85FF8554
:100B34002591EE87FF8705C0AE85BF852D91AE87D1
:100B4400BF870E94CC07503009F051503150EACF92
:100B540051C00E9424080E945B0A2E2F2A3030F0D4
:100B640003FF02C0295C01C0295A01C0205D04FDB5
:100B740021C0213360F4A889B9898A899B89A1306D
:100B8400E0E0BE07E0E08E07E0E09E0709F40BC05A
:100B9400431740F4531710F000FF01C010C020E2C7
:100BA40007FF08C020E3006102FF04C00E94100890
:100BB40009F051500E94CC07503009F05150315087
:100BC4000E9424080E948C0A0E94F207EC89A889DA
:100BD400B9898A899B89FF27662777270E945B0A40
:100BE4000E940B08E889F9896A897B890E94D00AE6
:100BF40009F0AFCF00FF08C0503031F05150E0E2AF
:100C0400EA930E94E307F8CF10E006CEAE81BF81DD
:100C14000E94AA0A0E94DB0AEF966F960895FF923B
:100C2400F82E26970E94D60A0E942D08309719F4B0
:100C3400EFEFFFEF25C0DE0116960E94150A8D0125
:100C44000E942D08EE83FF83E0E0E887E987DE0158
:100C54001A960E94150A0E94AA0AFA93EA931A9312
:100C64000A93E6EEF2E0FA93EA93FE013A96FA93D7
:100C7400EA93B7DD9F01AE81BF81E0E0EC93F90117
:100C84000E94DD0A2A96FF900895E991F991A991AD
:100C9400B991CD0105900D920020E1F7FC01089572
:100CA400A991B991EE27FF276D91662311F0319632
:100CB400FBCF0895AA27BB27E991F991059000205D
:100CC40011F01196FBCFFD0108957B816A81F981B2
:100CD400E88177FB770F67FD7160972F9E5781F04E
:100CE40078F0983190F4AA27BB2788270894879531
:100CF400B795A7959A95D1F7EA23FB23682305C0F6
:100D0400E8947727EE27FF2766276F77769508F410
:100D1400606877F9A991B99189919991EA17FB07CC
:100D24006807790797FB08950E9434080E94BE0A59
:100D34000E9467060E94B90A19F40E94340809C087
:100D4400E6F70E943408A0E0B0E080E89FE30E9448
:100D54000B09249608952497E0E0E883E983EA8365
:100D6400EFE3EB831A930A93EB85FC85EF3FAFEF38
:100D7400FA0729F47AD1EAE0F1E0ACD082C0EF3F7F
:100D8400AFE7FA0729F471D1EBE0F1E0A3D079C021
:100D9400AC85AA2352F4E985FA856B857C850E948B
:100DA4006C0868D16CD1EDE2EC93A885A73010F003
:100DB400E6E0E8871885E12F1150E03021F066D194
:100DC400CBD069D1F8CF6CD10E94120953D110E075
:100DD400E0E0F0E060E87FE35ED162D10E94F509D3
:100DE40060F054D1A6D057D11F5F173228F03DD1FF
:100DF400EFE0F1E06FD045C0F0CF103021F43FD1E7
:100E0400E0E3EC931DC0E12F1150E030C9F03ED176
:100E1400A3D09BD00E94BE0A0E9496063CD140D12A
:100E24000E94B0090E949F080E2F29D1A3D0F0E0A0
:100E34002DD12FD00E9462093CD1A1D01BD1E3CF88
:100E4400E885E030D1F01BD1EEE2EC93E885E15087
:100E5400E887EF5F91F02DD16CD00CD1E985FA854C
:100E64006B857C850E949F080E2F09D183D0F0E00A
:100E740020D10FD084D0FED0E9CFAE81BF81E0E095
:100E8400EC93198108812D960895FA93EA930C94B2
:100E940060080E942B0A0E94D8080895FA93EA93E6
:100EA4000C94A402E4EFF1E0F0CFEA930E9468020C
:100EB400E3E0F0E0EACFE0E3EA930E94440288EC46
:100EC40090E00197F1F70895ED91FD913196FE932D
:100ED400EE930895FA93EA930C944706AC81BD818E
:100EE4008E819F81E0E0F0E060E271E40E9462099B
:100EF400EC83FD836E837F830895EC81FD816E8195
:100F04007F81AC85BD858E859F850E94F5090895F6
:100F1400AC85BD858E859F850895EDECFCEC6CEC6D
:100F24007DE30E946209EC87FD876E877F873F5FC0
:100F34000895E0E0F0E060E271E40E94620908953F
:100F4400EC87FD876E877F870895A0E0B0E080E09E
:100F54009FE30E9412090895EDECFCEC6CEC7DE338
:100F64000E9462090895A885B9851196A887B98752
:100F740011970895E02FE05DEC93E02F08950E940F
:100F8400C30A0E940B090895E885F9853196E8871C
:100F9400F98708952A93EF81F885FA93EA93EB850C
:100FA400FC8509950895FE01E65AFF4F0190F081F2
:100FB400E02D08953497DE01A65ABF4FED93FC93BC
:100FC4000895EF81F885FA93EA93EB85FC850995FA
:100FD4000895DE01A65ABF4F0D90BC91A02D08952F
:100FE400EA87FB876C877D870895DDDFE3CFEA8599
:100FF400FB856C857D850895EE87FF87FA93EA93D8
:101004000E9452061E2F0895E4DF14960E94AA0A35
:101014000895E88BF98B6A8B7B8B08950B7FED89A0
:10102400EA93FE01E95AFF4F0190F081E02DFA9313
:10103400EA93FE01E55AFF4F0190F081E02D0995F6
:1010440050300895E889F9896A897B89AA85BB8526
:101054008C859D850895DE011C960E94150A0E94C8
:10106400AA0A08950E94B40A0895EE81FF81FA93B2
:10107400EA930895E987FA876B877C870895AE81A0
:10108400BF811196AE83BF8311970895AA81BB8156
:101094008C819D810895EA83FB836C837D8308950D
:1010A400EA81FB816C817D81A985BA858B859C85CC
:1010B4000895A985BA858B859C850895E991F99150
:1010C400309639F080ED97E00197F1F7A8953197C4
:1010D400C9F7089530976040704009F0705808953A
:1010E400552342F4503811F4E0FF04C03196691FCF
:1010F400791F6BF050E8572711F45F93CFC05F3F1F
:1011040031F0660F000C57956795752F08955F931E
:1011140000200AF0CFC0C8C050E8192E1522880F4D
:10112400991F9527550F879550E8072E0522660FBE
:10113400771F7527550F67950895689401C0E89443
:101144005F93F2DF703818F07F3F08F4A7C056E1D0
:10115400571BAAF4519558300EF4593030F0EFEF84
:10116400FFEF6FEF7FE777F91AC077275523B9F0C0
:10117400EE0FFF1F661F771F5A95D1F710C0772710
:10118400583028F0EF2FF62F672F5850F9CF5523FA
:1011940031F076956795F795E7955A95D1F7002044
:1011A4000AF449D15F910895689401C0E894309796
:1011B40060407040B1F0002426F0772312F40094CC
:1011C4003AD1172E7EE1112032F07A95EE0FFF1FEF
:1011D400661F111CF9CFEF2FF62F612D5F938ADF65
:1011E4005F9108954F93AF01FD01DA01AB01BC019A
:1011F400CA01402D012C142E4F910895EA0FFB1FB4
:10120400681F0895E095F0956095EF5FFF4F6F4F6D
:1012140008955F9381DF903871F150E8152604C07A
:101224005F937ADF903839F1703821F1572F591BC9
:101234002BF112F4D7DFFACF583118F0AA27BB27C5
:101244008827583028F0AB2FB82F88275850F9CF6B
:10125400552329F08695B795A7955A95D9F7502D1A
:10126400512572F0CBDF38F46795F795E7957395C0
:1012740013F420C0B7DF3EDF5F910895D8F7FBCFAA
:10128400EA1BFB0B680B51F010F40094BBDF6623E0
:1012940092F3EE0FFF1F661F7A95CBF7EE27FF2719
:1012A400662777275F910895EFEFFFEF6FE77FEFF2
:1012B4005F910895EFEFFFEF6FE77FE75F91089588
:1012C4005F932ADF703851F3903841F30124089476
:1012D400791F23F41CF300203AF3ECCF0F921F93F1
:1012E4002F933F934F93112722279927689FA0019B
:1012F4008F9F302D410D591F6B9F300D411D591F7C
:101304008E9F27D0BF9F25D06A9F23D0BE9F1DD01C
:10131400AF9F1BD0AE9F110D291F391F491F591FA5
:10132400E32FF42F652F522F4F913F912F911F914F
:101334000F9066232AF0550FEE1FFF1F661F02C091
:1013440073954BF2CDDE5F910895100D211D391F69
:1013540002C0200D311D491F591F08955F93DCDE23
:10136400703821F411200AF49FCFA4CF903809F4E7
:1013740095CF01240894970B1BF4D4F30020F3CFEA
:10138400792F1F932F933F934F93112411272227D3
:1013940033274427552790E2AE17BF078607410736
:1013A40030F0AE1BBF0B860B410B089401C0889430
:1013B400551F221F331F111CAA1FBB1F881F441F48
:1013C4009A9551F7F901612D4F913F912F911F91FA
:1013D400662332F0550FEE1FFF1F661F7A9543F206
:1013E4007FDE5F91089599239AF0772342F097174F
:1013F40048F029F4AE17BF07860720F031F098941F
:101404008894089598940894089518948894089555
:101414007723C2F7971798F3A9F7EA17FB0768072A
:1014240088F399F3ECCF0024AF0DB01D0895F19526
:10143400E195F0400895F09560957095E195FF4F22
:101444006F4F7F4F0895FE2FFF0FFF0B6F2F7F2FDE
:1014540008956F2F660F660B762F0895002498E089
:10146400AA0F001C0E1A10F40E0E01C0A1609A956A
:10147400B9F7EA2FA02D089551D0F0DF0EF4E195CD
:1014840008950024112490E1AA0FBB1F001C111C15
:101494000E1A1F0A18F40E0E1F1E01C0A1609A95A1
:1014A40099F7FD01D001089545D0EBDF0EF4BFDFBD
:1014B40008953F934F935F930024112444275527A5
:1014C40030E2AA0FBB1F881F991F001C111C441F68
:1014D400551F0E1A1F0A460B570B28F40E0E1F1E1B
:1014E400461F571F01C0A1603A9559F7FD01BC0181
:1014F400D001CA015F914F913F910895E894A7FFED
:1015040002C0A1956894E7FDE195A8DFEA2F0EF4E7
:10151400E1950895CEDFFD01BC010895E894E7FF4D
:1015240002C0E1956894A7FF04C0A19500F8039454
:1015340000FA0895E894F7FF02C079DF6894B7FFD2
:1015440006C0A095B095119600F8039400FA08958A
:10155400ED91FC9111970895ED91FD916D917C9120
:1015640013970895E881F9816A817B810895E8835E
:10157400F9836A837B8308957A936A93FA93EA934F
:101584000895182E862F612D192E972F712D1B2E3D
:10159400BF2FF12D1A2EAE2FE12D08953097604004
:1015A400704008955A934A933A932A931A930A934C
:1015B40008955D814C813B812A81198108810895B8
:00000001FF
